{
  "contractName": "HoneyPot",
  "abi": [
    {
      "constant": true,
      "inputs": [
        {
          "name": "",
          "type": "address"
        }
      ],
      "name": "balances",
      "outputs": [
        {
          "name": "",
          "type": "uint256"
        }
      ],
      "payable": false,
      "stateMutability": "view",
      "type": "function"
    },
    {
      "inputs": [],
      "payable": true,
      "stateMutability": "payable",
      "type": "constructor"
    },
    {
      "payable": false,
      "stateMutability": "nonpayable",
      "type": "fallback"
    },
    {
      "constant": false,
      "inputs": [],
      "name": "put",
      "outputs": [],
      "payable": true,
      "stateMutability": "payable",
      "type": "function"
    },
    {
      "constant": false,
      "inputs": [],
      "name": "get",
      "outputs": [],
      "payable": false,
      "stateMutability": "nonpayable",
      "type": "function"
    }
  ],
  "bytecode": "0x608060405261001261001760201b60201c565b61005c565b346000803373ffffffffffffffffffffffffffffffffffffffff1673ffffffffffffffffffffffffffffffffffffffff16815260200190815260200160002081905550565b6102518061006b6000396000f3fe6080604052600436106100345760003560e01c806327e235e314610046578063549262ba146100ab5780636d4ce63c146100b5575b34801561004057600080fd5b50600080fd5b34801561005257600080fd5b506100956004803603602081101561006957600080fd5b81019080803573ffffffffffffffffffffffffffffffffffffffff1690602001909291905050506100cc565b6040518082815260200191505060405180910390f35b6100b36100e4565b005b3480156100c157600080fd5b506100ca610129565b005b60006020528060005260406000206000915090505481565b346000803373ffffffffffffffffffffffffffffffffffffffff1673ffffffffffffffffffffffffffffffffffffffff16815260200190815260200160002081905550565b600060603373ffffffffffffffffffffffffffffffffffffffff166000803373ffffffffffffffffffffffffffffffffffffffff1673ffffffffffffffffffffffffffffffffffffffff1681526020019081526020016000205460405180600001905060006040518083038185875af1925050503d80600081146101c9576040519150601f19603f3d011682016040523d82523d6000602084013e6101ce565b606091505b5091509150816101dd57600080fd5b60008060003373ffffffffffffffffffffffffffffffffffffffff1673ffffffffffffffffffffffffffffffffffffffff16815260200190815260200160002081905550505056fea165627a7a72305820f9a96478637df06bff323a769c5ad08d5a9c2b9412a7747d83d62741ada395870029",
  "source": "pragma solidity ^0.5.8;\n\ncontract HoneyPot {\n    mapping (address => uint) public balances;\n\n    constructor() public  payable {\n        put();\n    }\n\n    function put() public payable {\n        balances[msg.sender] = msg.value;\n    }\n\n    function get() public {\n        (bool res, bytes memory x) = msg.sender.call.value(balances[msg.sender])(\"\");\n        if(!res) {\n            revert();\n        }\n        balances[msg.sender] = 0;\n    }\n\n    function() external {\n        revert();\n    }\n}\n",
  "sourcePath": "/home/ubuntu/eth/contracts/HoneyPot.sol",
  "compiler": {
    "name": "solc",
    "version": "0.5.8+commit.23d335f2.Emscripten.clang"
  },
  "schemaVersion": "3.0.16",
  "updatedAt": "2019-10-25T09:22:11.810Z",
  "devdoc": {
    "methods": {}
  },
  "userdoc": {
    "methods": {}
  }
}