{
  "contractName": "HoneyPotCollect",
  "abi": [
    {
      "constant": true,
      "inputs": [],
      "name": "honeypot",
      "outputs": [
        {
          "name": "",
          "type": "address"
        }
      ],
      "payable": false,
      "stateMutability": "view",
      "type": "function"
    },
    {
      "inputs": [
        {
          "name": "_honeypot",
          "type": "address"
        }
      ],
      "payable": false,
      "stateMutability": "nonpayable",
      "type": "constructor"
    },
    {
      "payable": true,
      "stateMutability": "payable",
      "type": "fallback"
    },
    {
      "constant": false,
      "inputs": [],
      "name": "kill",
      "outputs": [],
      "payable": false,
      "stateMutability": "nonpayable",
      "type": "function"
    },
    {
      "constant": false,
      "inputs": [],
      "name": "collect",
      "outputs": [],
      "payable": true,
      "stateMutability": "payable",
      "type": "function"
    }
  ],
  "bytecode": "0x608060405234801561001057600080fd5b5060405160208061036f8339810180604052602081101561003057600080fd5b8101908080519060200190929190505050806000806101000a81548173ffffffffffffffffffffffffffffffffffffffff021916908373ffffffffffffffffffffffffffffffffffffffff160217905550506102de806100916000396000f3fe6080604052600436106100345760003560e01c806341c0e1b5146100f7578063e52253811461010e578063ef89aff314610118575b346000809054906101000a900473ffffffffffffffffffffffffffffffffffffffff1673ffffffffffffffffffffffffffffffffffffffff1631106100f5576000809054906101000a900473ffffffffffffffffffffffffffffffffffffffff1673ffffffffffffffffffffffffffffffffffffffff16636d4ce63c6040518163ffffffff1660e01b8152600401600060405180830381600087803b1580156100dc57600080fd5b505af11580156100f0573d6000803e3d6000fd5b505050505b005b34801561010357600080fd5b5061010c61016f565b005b610116610188565b005b34801561012457600080fd5b5061012d61028d565b604051808273ffffffffffffffffffffffffffffffffffffffff1673ffffffffffffffffffffffffffffffffffffffff16815260200191505060405180910390f35b3373ffffffffffffffffffffffffffffffffffffffff16ff5b6000809054906101000a900473ffffffffffffffffffffffffffffffffffffffff1673ffffffffffffffffffffffffffffffffffffffff1663549262ba346040518263ffffffff1660e01b81526004016000604051808303818588803b1580156101f157600080fd5b505af1158015610205573d6000803e3d6000fd5b50505050506000809054906101000a900473ffffffffffffffffffffffffffffffffffffffff1673ffffffffffffffffffffffffffffffffffffffff16636d4ce63c6040518163ffffffff1660e01b8152600401600060405180830381600087803b15801561027357600080fd5b505af1158015610287573d6000803e3d6000fd5b50505050565b6000809054906101000a900473ffffffffffffffffffffffffffffffffffffffff168156fea165627a7a7230582044cfe19f6336945e90ad055b4a5d74d4d73189d23017ecec87f48af6d161b4800029",
  "source": "pragma solidity ^0.5.8;\n\nimport \"./HoneyPot.sol\";\n\ncontract HoneyPotCollect {\n  HoneyPot public honeypot;\n\n  constructor (address _honeypot) public {\n    honeypot = HoneyPot(_honeypot);\n  }\n\n  function kill () public {\n    selfdestruct(msg.sender);\n  }\n\n  function collect() public payable {\n    honeypot.put.value(msg.value)();\n    honeypot.get();\n  }\n\n  function () external  payable {\n    if (address(honeypot).balance >= msg.value) {\n      honeypot.get();\n    }\n  }\n}\n",
  "sourcePath": "/home/ubuntu/eth/contracts/HoneyPotCollect.sol",
  "compiler": {
    "name": "solc",
    "version": "0.5.8+commit.23d335f2.Emscripten.clang"
  },
  "schemaVersion": "3.0.16",
  "updatedAt": "2019-10-25T09:22:11.811Z",
  "devdoc": {
    "methods": {}
  },
  "userdoc": {
    "methods": {}
  }
}